S00D000058506F6E672E737265632B
S11300000C942A000C9447000C9447000C9447006D
S11300100C9447000C9447000C9447000C94470040
S11300200C9447000C9447000C9447000C94470030
S11300300C9447000C9447000C9447000C94470020
S11300400C9447000C9447000C9447000C94470010
S11300500C94470011241FBECFE5D8E0DEBFCDBF0E
S113006010E0A0E6B0E0E8EFF4E002C005900D92E5
S1130070A036B107D9F724E0A0E6B0E001C01D9294
S1130080AD36B207E1F70E946C020C947A020C942C
S11300900000E6E6F0E080E4808380E2818382E091
S11300A082838EEF83838CE180936100809364006C
S11300B00895809166009FED980F9F3328F0E6E63F
S11300C0F0E0928191959283813420F090916700C1
S11300D090936400909167002DEF290F2B3328F043
S11300E0E6E6F0E0238121952383E6E6F0E0228131
S11300F0820F80838381980F91830895CF93DF9338
S1130100C6E6D0E069816150888181500E94420234
S11301108881698181500E94420269816F5F888170
S113012081500E9442026981615088810E9442028A
S1130130698188810E94420269816F5F88810E947F
S113014042026981615088818F5F0E9442028881E6
S113015069818F5F0E94420269816F5F88818F5F2E
S11301600E944202DF91CF910895EF92FF920F9384
S11301701F93CF93C0E00F2EF0E6EF2EF0E0FF2E9A
S1130180F02D03E610E0F70160816C0F80E20E941D
S11301904202F80160816C0F80E60E944202F7017E
S11301A060816C0F81E20E944202F80160816C0F51
S11301B08FE50E944202CF5FC93029F7CF911F918A
S11301C00F91FF90EF900895CF93DF93C6E6D0E0B0
S11301D069816150888181500E94190288816981F6
S11301E081500E94190269816F5F888181500E9449
S11301F019026981615088810E941902698188818C
S11302000E94190269816F5F88810E9419026981C5
S1130210615088818F5F0E941902888169818F5F94
S11302200E94190269816F5F88818F5F0E941902A1
S1130230DF91CF910895EF92FF920F931F93CF9385
S1130240C0E00F2EF0E6EF2EF0E0FF2EF02D03E6D7
S113025010E0F70161816C0F80E20E941902F8013D
S113026061816C0F80E60E941902F70161816C0FB5
S113027081E20E941902F80161816C0F8FE50E94EE
S11302801902CF5FC93029F7E0E6F0E0818180836D
S1130290E3E6F0E081818083CF911F910F91FF907D
S11302A0EF9008950E947E000E94B5000E945900BC
S11302B00E94E4000E941B010895CF93C0E06C2FBC
S11302C08EE10E9419026C2F82E60E941902CF5F10
S11302D0C034A9F7CF9108950E9449000E94D90122
S11302E00E945D010895882331F081E080936C04BD
S11302F0DA98DB9A089510926C04DB98DA9A0895E0
S11303009FEF94BBD89A9AE19A95F1F700C085BB08
S1130310D89885E38A95F1F7000008958BB3837F1D
S11303208BBB0895CF93C82FD99A0E9480018091E6
S11303306B0420916C0430E02F5F3F4F829FF001EB
S1130340839FF00D112490916A00EE0FFF1FEE0FB2
S1130350FF1FEE0FFF1FE559FF4FE90FF11DC0838B
S11303608F5F8F7380936B04D998CF9108951F93F7
S1130370CF93DF9380E480936B040E94800110E0AC
S1130380812F886B80936A000E948001C0E4D0E0D2
S113039080E00E9492012197D9F71F5F183081F7FE
S11303A088EB80936A000E948001DF91CF911F91B6
S11303B008958FEF84BB8AB38F608ABB0E948E013D
S11303C08FE30E94800180EC0E9480010E94B701AB
S11303D080E00E9473010895CF93C82F80648093B6
S11303E06B040E948001C0936B04CF910895CF9356
S11303F0C82F886B80936A000E948001C0936A00B2
S1130400CF910895CF93DF93C82FD62F82958695E9
S1130410869583700E9473018D2F869586958695A7
S11304200E94F7018C2F8F730E94EC01DF91CF9112
S11304300895CF93C62F0E94020280916C0490E02D
S1130440019620916B04289FF001299FF00D11243F
S113045080916A00EE0FFF1FEE0FFF1FEE0FFF1FCC
S1130460E559FF4FE80FF11DC77081E090E002C02D
S1130470880F991FCA95E2F79081892B0E949201F7
S1130480CF910895CF93C62F0E94020280916C04ED
S113049090E0019620916B04289FF001299FF00DB4
S11304A0112480916A00EE0FFF1FEE0FFF1FEE0F65
S11304B0FF1FE559FF4FE80FF11DC77081E090E081
S11304C002C0880F991FCA95E2F78095908189230D
S11304D00E949201CF9108950E946C010E945201E2
S11304E02FEF85EA9EE0215080409040E1F700C064
S10B04F00000F4CFF894FFCFE3
S9030000FC
