S00D000058506F6E672E737265632B
S11300000C942A000C9447000C9447000C9447006D
S11300100C9447000C9447000C9447000C94470040
S11300200C9447000C9447000C9447000C94470030
S11300300C9447000C9447000C9447000C94470020
S11300400C9447000C9447000C9447000C94470010
S11300500C94470011241FBECFE5D8E0DEBFCDBF0E
S113006010E0A0E6B0E0EAEEF3E002C005900D92E5
S1130070A036B107D9F724E0A0E6B0E001C01D9294
S1130080AB36B207E1F70E94E5010C94F3010C943E
S11300900000E4E6F0E080E4808380E2818382E093
S11300A08283838308950E9452010E944900089527
S11300B0909164008DEF890F8B3728F0E4E6F0E02F
S11300C0828181958283809165002DEF280F2B33E7
S11300D028F0E4E6F0E0238121952383E4E6F0E0D0
S11300E02281920F90839381890F81830895CF9306
S11300F0DF93C4E6D0E069816150888181500E9419
S1130100BB018881698181500E94BB0169816F5F55
S1130110888181500E94BB016981615088810E945D
S1130120BB01698188810E94BB0169816F5F8881FD
S11301300E94BB016981615088818F5F0E94BB016D
S1130140888169818F5F0E94BB0169816F5F8881AB
S11301508F5F0E94BB01DF91CF910895CF93DF930E
S1130160C4E6D0E069816150888181500E94920187
S11301708881698181500E94920169816F5F8881C1
S113018081500E9492016981615088810E9492018C
S1130190698188810E94920169816F5F88810E94D0
S11301A092016981615088818F5F0E9492018881E8
S11301B069818F5F0E94920169816F5F88818F5F7F
S11301C00E949201DF91CF9108950E9477000E94CE
S11301D058000E94AE000895882331F081E0809396
S11301E06A04DA98DB9A089510926A04DB98DA9A22
S11301F008959FEF94BBD89A9AE19A95F1F700C0BD
S113020085BBD89885E38A95F1F7000008958BB3F0
S1130210837F8BBB0895CF93C82FD99A0E94F9008E
S11302208091690420916A0430E02F5F3F4F829FE0
S1130230F001839FF00D112490916800EE0FFF1FD1
S1130240EE0FFF1FEE0FFF1FE759FF4FE90FF11DE0
S1130250C0838F5F8F7380936904D998CF91089579
S11302601F93CF93DF9380E4809369040E94F90085
S113027010E0812F886B809368000E94F900C0E42D
S1130280D0E080E00E940B012197D9F71F5F18305E
S113029081F788EB809368000E94F900DF91CF9189
S11302A01F9108958FEF84BB8AB38F608ABB0E942D
S11302B007018FE30E94F90080EC0E94F9000E947C
S11302C0300180E00E94EC000895CF93C82F806431
S11302D0809369040E94F900C0936904CF91089542
S11302E0CF93C82F886B809368000E94F900C09355
S11302F06800CF910895CF93DF93C82FD62F8295AE
S11303008695869583700E94EC008D2F8695869540
S113031086950E9470018C2F8F730E946501DF9176
S1130320CF910895CF93C62F0E947B0180916A04D8
S113033090E0019620916904289FF001299FF00D17
S1130340112480916800EE0FFF1FEE0FFF1FEE0FC8
S1130350FF1FE759FF4FE80FF11DC77081E090E0E0
S113036002C0880F991FCA95E2F79081892B0E94D9
S11303700B01CF910895CF93C62F0E947B018091EA
S11303806A0490E0019620916904289FF001299F56
S1130390F00D112480916800EE0FFF1FEE0FFF1F78
S11303A0EE0FFF1FE759FF4FE80FF11DC77081E003
S11303B090E002C0880F991FCA95E2F7809590815A
S11303C089230E940B01CF9108950E9453000E943B
S11303D0E5002FEF85EA9EE0215080409040E1F750
S10D03E000C00000F4CFF894FFCF32
S9030000FC
