S00D000058506F6E672E737265632B
S11300000C942A000C9447000C9447000C9447006D
S11300100C9447000C9447000C9447000C94470040
S11300200C9447000C9447000C9447000C94470030
S11300300C9447000C9447000C9447000C94470020
S11300400C9447000C9447000C9447000C94470010
S11300500C94470011241FBECFE5D8E0DEBFCDBF0E
S113006010E0A0E6B0E0EAE5F3E002C005900D92EE
S1130070A036B107D9F724E0A0E6B0E001C01D9294
S1130080AB36B207E1F70E949D010C94AB010C94CE
S11300900000E4E6F0E080E4808380E2818382E093
S11300A08283838308950E9419010E944900089560
S11300B090916400892F8F7729F4E4E6F0E082813F
S11300C08195828380916500282F2F7B29F4E4E6B3
S11300D0F0E0238121952383E4E6F0E02281920F6E
S11300E090839381890F81830895CF93DF93C4E62E
S11300F0D0E069816150888181500E9474018881B7
S1130100698181500E94740169816F5F8881815087
S11301100E9474016981615088810E94740169811F
S113012088810E94740169816F5F88810E947401D3
S11301306981615088818F5F0E947401888169811F
S11301408F5F0E94740169816F5F88818F5F0E9455
S11301507401DF91CF9108950E943D010E945800DF
S11301600E9475000895882331F081E080936A0429
S1130170DA98DB9A089510926A04DB98DA9A089563
S11301809FEF94BBD89A95E89A95F1F7000085BB48
S1130190D8988AEB8A95F1F700C008958BB3837FD2
S11301A08BBB0895CF93C82FD99A0E94C000809129
S11301B0690420916A0430E02F5F3F4F829FF00171
S11301C0839FF00D112490916800EE0FFF1FEE0F36
S11301D0FF1FEE0FFF1FE759FF4FE90FF11DC0830B
S11301E08F5F8F7380936904D998CF9108951F937B
S11301F0CF93DF9380E4809369040E94C00010E0F1
S1130200812F886B809368000E94C000C0E4D0E016
S113021080E00E94D2002197D9F71F5F183081F740
S113022088EB809368000E94C000DF91CF911F91FA
S113023008958FEF84BB8AB38F608ABB0E94CE007F
S11302408FE30E94C00080EC0E94C0000E94F7006F
S113025080E00E94B3000895E9E6F0E029E634E086
S113026008C01192E817F907E1F7FC0128173907CC
S113027019F0CF010896F5CF08950E94CE000E9490
S1130280F70080E00E94B3000E942C010895CF93F0
S1130290C82F8064809369040E94C000C0936904DD
S11302A0CF910895CF93C82F886B809368000E94E4
S11302B0C000C0936800CF910895CF93DF93C82FF7
S11302C0D62F82958695869583700E94B3008D2FD4
S11302D08695869586950E9452018C2F8F730E9475
S11302E04701DF91CF910895CF93C62F0E945D01FE
S11302F080916A0490E0019620916904289FF0019E
S1130300299FF00D112480916800EE0FFF1FEE0F5E
S1130310FF1FEE0FFF1FE759FF4FE80FF11DC770D6
S113032081E090E002C0880F991FCA95E2F790819E
S1130330892B0E94D200CF9108950E9453000E94FD
S1130340AC002FEF82E597E0215080409040E1F728
S10D035000C00000F4CFF894FFCFC2
S9030000FC
