:100000000C942A000C9453000C9447000C94470065
:100010000C9447000C9447000C9447000C94470044
:100020000C9447000C9447000C9447000C94470034
:100030000C9447000C9447000C9447000C94470024
:100040000C9447000C9447000C9447000C94470014
:100050000C94470011241FBECFE5D8E0DEBFCDBF12
:1000600010E0A0E6B0E0E4ECF7E002C005900D92ED
:10007000A036B107D9F724E0A0E6B0E001C01D9298
:10008000A037B207E1F70E94CA030C94E0030C9476
:100090000000929A939A8BB780648BBF85B781607A
:1000A00085BF789408951F920F920FB60F92112476
:1000B0008F939F93829905C080B38870809360006E
:1000C00013C09091600080B38870891769F09923FC
:1000D00031F0809161008F5F8093610005C0809155
:1000E00061008150809361009F918F910F900FBEAE
:1000F0000F901F901895E8E6F0E080E4808380E29E
:10010000818382E0828313828CE1809363008093F9
:1001100066000895CF93DF93C8E6D0E0698161500F
:10012000888181500E94A1038881698181500E9449
:10013000A10369816F5F888181500E94A103698159
:10014000615088810E94A103698188810E94A10376
:1001500069816F5F88810E94A103698161508881F4
:100160008F5F0E94A103888169818F5F0E94A10334
:1001700069816F5F88818F5F0E94A103DF91CF91BA
:100180000895EF92FF920F931F93CF93C0E00F2E2D
:10019000F2E6EF2EF0E0FF2EF02D05E610E0F7017D
:1001A00060816C0F80E20E94A103F80160816C0FF6
:1001B00080E60E94A103F70160816C0F81E20E943A
:1001C000A103F80160816C0F8FE50E94A103CF5F4E
:1001D000C93029F7CF911F910F91FF90EF900895AB
:1001E000CF93DF93C8E6D0E0698161508881815068
:1001F0000E9479038881698181500E947903698115
:100200006F5F888181500E94790369816150888184
:100210000E947903698188810E94790369816F5FF7
:1002200088810E9479036981615088818F5F0E9473
:100230007903888169818F5F0E94790369816F5F8B
:1002400088818F5F0E947903DF91CF910895EF92AB
:10025000FF920F931F93CF93C0E00F2EF2E6EF2E85
:10026000F0E0FF2EF02D05E610E0F70161816C0F44
:1002700080E20E947903F80161816C0F80E60E94A0
:100280007903F70161816C0F81E20E947903F80123
:1002900061816C0F8FE50E947903CF5FC93029F728
:1002A000E2E6F0E081818083E5E6F0E08181808311
:1002B000CF911F910F91FF90EF90089590E04091A2
:1002C0006900042E000C550B481759074CF09C018F
:1002D000275F3F4F81E0241735071CF480E0089525
:1002E00080E0089540916900042E000C550B90E0C9
:1002F00048175907E9F09C01275F3F4F4217530702
:10030000C9F02750310942175307B4F02B5F3F4F14
:10031000241735079CF0235031094217530784F006
:100320002F5F3F4F81E0241735075CF080E0089590
:100330008DEF089583E008958EEF089582E008958B
:100340008FEF0895E8E6F0E09281892F819523816F
:10035000211106C0181614F08FEF01C081E0891B2F
:100360008A3F0CF48AEF87300CF086E00895809184
:1003700069008450282F082E000C330B275F3F4F55
:100380002134310524F488231CF480E001C087E384
:1003900090916600891B18166CF4833124F48A301E
:1003A00024F482E003C089E001C084E0980F9093B8
:1003B00066000895882364F4833124F48A3024F499
:1003C00082E003C089E001C084E0981B909366003E
:1003D0000895CF93DF9380916800833208F58132CE
:1003E00058F4E5E6F0E082818F5F82830E947B0013
:1003F0008EEF80936A0033C0C09163008C2F0E94FF
:100400005E01882361F18C2F0E947201C8E6D0E062
:100410008B830E94A2018A8381E080936C001FC0BD
:100420008E35E8F0803640F0E2E6F0E082818F5FC2
:1004300082830E947B0013C0C09166008C2F0E94B3
:100440005E01882361F08C2F0E947201C8E6D0E023
:100450008B830E94A2018A8381E080936C0080914B
:100460006800813410F00E94B70180916100282F4C
:10047000082E000C330B275F3F4F2134310524F049
:1004800087E38093610005C088231CF4109261000B
:1004900080E080936300E8E6F0E020813281832FE2
:1004A000032E000C990B820F911D8032910524F4CC
:1004B00080E2809368000AC08136910524F080E6CE
:1004C0008093680003C0230F20936800E8E6F0E003
:1004D00091818381282F082E000C330B290F311DA9
:1004E00097FD3A9533233CF411828195838381E013
:1004F00080936C0010C02E33310554F0E8E6F0E034
:100500009DE391838195838381E080936C0003C098
:10051000890F80936900DF91CF91089510926C004C
:100520000E948A000E94C1000E94E9010E94F0001E
:100530000E9427010895CF93DF93D0E0CD2FC170A3
:100540006D2F8C2F0E947903CE5FCE31C8F3DF5F11
:10055000D034A1F7C0E06C2F8EE10E9479036C2F9C
:1005600082E60E947903CF5FC034A9F7D0E0CD2F97
:10057000C1706D2F82E68C0F0E947903CE5FCE3161
:10058000C0F3DF5FD03499F7DF91CF91089582E017
:1005900090E00E947B000E9439030E949B020E940F
:1005A00049008CE1809361000895882331F081E057
:1005B00080936F04DA98DB9A089510926F04DB98A9
:1005C000DA9A08959FEF94BBD89A9AE19A95F1F739
:1005D00000C085BBD8988AE18A95F1F700C00895DC
:1005E0008BB3837F8BBB0895CF93C82FD99A0E947A
:1005F000E20280916E04E0916F0490E4E99FF001C3
:100600001124E80FF11D90916D00EE0FFF1FEE0F0A
:10061000FF1FEE0FFF1FE259FF4FE90FF11DC083CF
:100620008F5F8F7380936E04D998CF9108951F9335
:10063000CF93DF9380E480936E040E94E20210E087
:10064000812F886B80936D000E94E202C0E4D0E0AD
:1006500080E00E94F4022197D9F71F5F183081F7DC
:1006600088EB80936D000E94E202DF91CF911F9191
:1006700008958FEF84BB8AB38F608ABB0E94F0021B
:100680008FE30E94E20280EC0E94E2020E941703C4
:1006900080E00E94D5020895CF93C82F8064809394
:1006A0006E040E94E202C0936E04CF910895CF932E
:1006B000C82F886B80936D000E94E202C0936D008A
:1006C000CF910895CF93DF93C82FD62F829586952B
:1006D000869583700E94D5028D2F86958695869586
:1006E0000E9457038C2F8F730E944C03DF91CF9190
:1006F0000895CF93C62F0E946203E0916F0480910A
:100700006E0490E4E99FF0011124E80FF11D80913F
:100710006D00EE0FFF1FEE0FFF1FEE0FFF1FE259E0
:10072000FF4FE80FF11DC77081E090E002C0880F15
:10073000991FCA95E2F79081892B0E94F402CF910C
:100740000895CF93C62F0E946203E0916F048091B9
:100750006E0490E4E99FF0011124E80FF11D8091EF
:100760006D00EE0FFF1FEE0FFF1FEE0FFF1FE25990
:10077000FF4FE80FF11DC77081E090E002C0880FC5
:10078000991FCA95E2F78095908189230E94F4020F
:10079000CF910895D69A0E94C7020E948E0280913E
:1007A0006C00882311F0DE9801C0DE9A2FEF83ECF5
:1007B00099E0215080409040E1F700C00000EDCF6B
:0407C000F894FFCFDB
:00000001FF
