:100000000C942A000C945B000C9483000C94470021
:100010000C9447000C9447000C9447000C94470044
:100020000C9447000C94C9040C9447000C944700AE
:100030000C9447000C9447000C9447000C94470024
:100040000C9447000C9447000C9447000C94470014
:100050000C94470011241FBECFE5D8E0DEBFCDBF12
:1000600010E0A0E6B0E0E2E3FAE002C005900D92F5
:10007000AC36B107D9F724E0ACE6B0E001C01D9280
:10008000A338B207E1F70E949E040C9417050C9464
:100090000000959A929A939A949A8BB780648BBF3A
:1000A0008BB780688BBF85B7816085BF85B784605B
:1000B00085BF789408951F920F920FB60F92112466
:1000C0008F939F93829905C080B3807280936D0057
:1000D00013C090916D0080B38072891769F09923E5
:1000E00031F0809173008F5F8093730005C0809121
:1000F00073008150809373009F918F910F900FBE7A
:100100000F901F9018951F920F920FB60F92112407
:100110008F939F93849905C080B3887080936C00FF
:1001200013C090916C0080B38870891769F099238F
:1001300031F0809172008F5F8093720005C08091D2
:1001400072008150809372009F918F910F900FBE2B
:100150000F901F901895869903C081E080936E00E0
:10016000879903C081E080936F000895CF93DF9358
:10017000EAE7F0E080E4808380E2818382E08283AA
:1001800013828CE18093730080937200E4E7F0E0C7
:100190008183C7E7D0E0898382810E94C3048A817A
:1001A0000E94C604DF91CF910895109276001092BC
:1001B00079000E94B6000895CF93DF93CAE7D0E09C
:1001C00069816150888181500E94750488816981AC
:1001D00081500E94750469816F5F888181500E94FF
:1001E00075046981615088810E94750469818881E4
:1001F0000E94750469816F5F88810E94750469811E
:10020000615088818F5F0E947504888169818F5F4A
:100210000E94750469816F5F88818F5F0E947504F9
:10022000DF91CF910895EF92FF920F931F93CF9399
:10023000C0E00F2EF4E7EF2EF0E0FF2EF02D07E7E1
:1002400010E0F70160816C0F80E20E947504F801F4
:1002500060816C0F80E60E947504F70160816C0F6D
:1002600081E20E947504F80160816C0F8FE50E94A5
:100270007504CF5FC93029F7CF911F910F91FF907F
:10028000EF900895CF93DF93CAE7D0E06981615082
:10029000888181500E944D048881698181500E942B
:1002A0004D0469816F5F888181500E944D0469818E
:1002B000615088810E944D04698188810E944D04AB
:1002C00069816F5F88810E944D04698161508881D6
:1002D0008F5F0E944D04888169818F5F0E944D0469
:1002E00069816F5F88818F5F0E944D04DF91CF919C
:1002F0000895EF92FF920F931F93CF93C0E00F2EBC
:10030000F4E7EF2EF0E0FF2EF02D07E710E0F70105
:1003100061816C0F80E20E944D04F80161816C0FD5
:1003200080E60E944D04F70161816C0F81E20E941A
:100330004D04F80161816C0F8FE50E944D04CF5F81
:10034000C93029F7E4E7F0E081818083E7E7F0E056
:1003500081818083CF911F910F91FF90EF9008953D
:1003600090E040917B00042E000C550B4817590774
:100370004CF09C01275F3F4F81E0241735071CF4A8
:1003800080E0089580E0089540917B00042E000CE9
:10039000550B90E048175907E9F09C01275F3F4F44
:1003A00042175307C9F02750310942175307B4F0D9
:1003B0002B5F3F4F241735079CF02350310942171C
:1003C000530784F02F5F3F4F81E0241735075CF01F
:1003D00080E008958DEF089583E008958EEF0895ED
:1003E00082E008958FEF0895EAE7F0E09281892F87
:1003F00081952381211106C0181614F08FEF01C0DA
:1004000081E0891B8A3F0CF48AEF87300CF086E08C
:10041000089580917B00845090916100292F21954F
:1004200020936100891B282F082E000C330B275FB7
:100430003F4F2134310524F488231CF480E001C0AF
:1004400087E390917800891B18166CF4833124F4AB
:100450008A3024F482E003C089E001C084E0980F70
:10046000909378000895882364F4833124F48A30CB
:1004700024F482E003C089E001C084E0981B9093DB
:100480007800089580917A00813438F080916E0070
:10049000811107C00E940902089580916E0088238F
:1004A000B1F080917200282F082E000C330B275FCB
:1004B0003F4F2134310524F087E38093720005C05B
:1004C00088231CF41092720080E0809378000895D5
:1004D00080917B00845090916000292F219520937A
:1004E0006000891B282F082E000C330B275F3F4F1D
:1004F0002134310524F488231CF480E001C087E313
:1005000090917500891B18166CF4833124F48A309D
:1005100024F482E003C089E001C084E0980F909346
:1005200075000895882364F4833124F48A3024F418
:1005300082E003C089E001C084E0981B90937500BD
:10054000089580917A00803438F480916F00811191
:1005500007C00E946802089580916F008823B1F05F
:1005600080917300282F082E000C330B275F3F4F1C
:100570002134310524F087E38093730005C088237C
:100580001CF41092730080E0809375000895CF935F
:10059000DF9380917A00833230F5813280F4E7E78F
:1005A000F0E082818F5F82838A3018F00E94D5004C
:1005B0003EC00E94B6008EEF80937C0038C0C09190
:1005C00075008C2F0E94B001882389F18C2F0E9426
:1005D000C401CAE7D0E08B830E94F4018A8381E0E2
:1005E0008093700024C08E3510F1803668F0E4E707
:1005F000F0E082818F5F82838A3018F00E94D500FC
:1006000016C00E94B60013C0C09178008C2F0E94C3
:10061000B001882361F08C2F0E94C401CAE7D0E0AA
:100620008B830E94F4018A8381E0809370000E9492
:10063000A1020E944202EAE7F0E020813281832F8A
:10064000032E000C990B820F911D8032910524F42A
:1006500080E280937A000AC08136910524F080E61A
:1006600080937A0003C0230F20937A00EAE7F0E03A
:1006700091818381282F082E000C330B290F311D07
:1006800097FD3A9533233CF411828195838381E071
:100690008093700010C02E33310554F0EAE7F0E08B
:1006A0009DE391838195838381E08093700003C0F3
:1006B000890F80937B00DF91CF9108951092700095
:1006C0000E94DC000E9413010E94C7020E944201A6
:1006D0000E9479010895CF93DF93D0E0CD2FC170B0
:1006E0006D2F8C2F0E944D04CE5FCE31C8F3DF5F9B
:1006F000D034A1F7C0E06C2F8EE10E944D046C2F26
:1007000082E60E944D04CF5FC034A9F7D0E0CD2F20
:10071000C1706D2F82E68C0F0E944D04CE5FCE31EA
:10072000C0F3DF5FD03499F7DF91CF9108950E9435
:10073000B6000E940D040E946B030E9449000E94B3
:10074000AB008CE180937300809372000E94B4042C
:100750000895882331F081E080938004DA98DB9A51
:10076000089510928004DB98DA9A08959FEF94BB65
:10077000D89A9AE19A95F1F700C085BBD8988AE19A
:100780008A95F1F700C008958BB3837F8BBB0895E2
:10079000CF93C82FD99A0E94B60380917F04E0912D
:1007A000800490E4E99FF0011124E80FF11D90917D
:1007B0007E00EE0FFF1FEE0FFF1FEE0FFF1FE15831
:1007C000FF4FE90FF11DC0838F5F8F7380937F040C
:1007D000D998CF9108951F93CF93DF9380E48093AE
:1007E0007F040E94B60310E0812F886B80937E0007
:1007F0000E94B603C0E4D0E080E00E94C8032197C5
:10080000D9F71F5F183081F788EB80937E000E9434
:10081000B603DF91CF911F9108958FEF84BB8AB308
:100820008F608ABB0E94C4038FE30E94B60380ECF2
:100830000E94B6030E94EB0380E00E94A903089582
:10084000CF93C82F806480937F040E94B603C09327
:100850007F04CF910895CF93C82F886B80937E003B
:100860000E94B603C0937E00CF910895CF93DF938B
:10087000C82FD62F82958695869583700E94A903EE
:100880008D2F8695869586950E942B048C2F8F73CD
:100890000E942004DF91CF910895CF93C62F0E942C
:1008A0003604E091800480917F0490E4E99FF00198
:1008B0001124E80FF11D80917E00EE0FFF1FEE0F57
:1008C000FF1FEE0FFF1FE158FF4FE80FF11DC7702C
:1008D00081E090E002C0880F991FCA95E2F79081ED
:1008E000892B0E94C803CF910895CF93C62F0E94F1
:1008F0003604E091800480917F0490E4E99FF00148
:100900001124E80FF11D80917E00EE0FFF1FEE0F06
:10091000FF1FEE0FFF1FE158FF4FE80FF11DC770DB
:1009200081E090E002C0880F991FCA95E2F7809598
:10093000908189230E94C803CF910895D69A0E947E
:1009400097030E945E0380917000882311F0DE9867
:1009500001C0DE9A2FEF83EC99E021508040904057
:10096000E1F700C00000EDCF8FEF87BBD59AD49A96
:1009700080EB9FEF9DBD8CBD1FBC85E08EBD84E0EC
:1009800089BF7894089580938204089580938104A8
:1009900008951F920F920FB60F9211248F939F9379
:1009A000EF93FF938091710091E0811190E090931B
:1009B0007100811118C0DC9ADD98E09182048DEC01
:1009C000E89F812D1124869586958695880F982F0E
:1009D000990F990F890FE81BF0E0EE59FF4F8081C6
:1009E000809588BB17C0DD9ADC98E09181048DEC7E
:1009F000E89F812D1124869586958695880F982FDE
:100A0000990F990F890FE81BF0E0EE59FF4F808195
:100A1000809588BB80EB9FEF9DBD8CBDFF91EF91D2
:100A20009F918F910F900FBE0F901F901895F89483
:020A3000FFCFF6
:0C0A32000203FC60DAF266B6BEE0FEF6DD
:00000001FF
