S00D000058506F6E672E737265632B
S11300000C942A000C9453000C9447000C94470061
S11300100C9447000C9447000C9447000C94470040
S11300200C9447000C9447000C9447000C94470030
S11300300C9447000C9447000C9447000C94470020
S11300400C9447000C9447000C9447000C94470010
S11300500C94470011241FBECFE5D8E0DEBFCDBF0E
S113006010E0A0E6B0E0ECEEF5E002C005900D92E1
S1130070A036B107D9F724E0A0E6B0E001C01D9294
S1130080AF36B207E1F70E94E6020C94F4020C9436
S11300900000929A939A8BB780648BBF85B7816076
S11300A085BF789408951F920F920FB60F92112472
S11300B08F939F93829905C080B38870809360006A
S11300C013C09091600080B38870891769F09923F8
S11300D031F0809161008F5F8093610005C0809151
S11300E061008150809361009F918F910F900FBEAA
S11300F00F901F901895E8E6F0E080E4808380E29A
S1130100818382E082838EEF83838CE1809363001A
S1130110809366000895809168009FED980F9F3347
S113012028F0E8E6F0E0928191959283813488F199
S1130130909169009450292F092E000C330B275FEE
S11301403F4F2134310524F499231CF490E001C07D
S113015097E320916600921B19166CF4933124F4F2
S11301609A3024F492E003C099E001C094E0290F8E
S1130170209366000EC0992364F4933124F49A30DA
S113018024F492E003C099E001C094E0291B209379
S1130190660090916100292F092E000C330B275F14
S11301A03F4F2134310524F097E39093610005C05B
S11301B099231CF41092610090E090936300909155
S11301C069002DEF290F2B3328F0E8E6F0E02381B6
S11301D021952383E8E6F0E02281820F80838381E6
S11301E0980F91830895CF93DF93C8E6D0E0698197
S11301F06150888181500E94BC028881698181504C
S11302000E94BC0269816F5F888181500E94BC0298
S11302106981615088810E94BC02698188810E9441
S1130220BC0269816F5F88810E94BC026981615050
S113023088818F5F0E94BC02888169818F5F0E94E0
S1130240BC0269816F5F88818F5F0E94BC02DF916D
S1130250CF910895EF92FF920F931F93CF93C0E035
S11302600F2EF2E6EF2EF0E0FF2EF02D05E610E063
S1130270F70160816C0F80E20E94BC02F80160818A
S11302806C0F80E60E94BC02F70160816C0F81E272
S11302900E94BC02F80160816C0F8FE50E94BC02D1
S11302A0CF5FC93029F7CF911F910F91FF90EF9045
S11302B00895CF93DF93C8E6D0E0698161508881C7
S11302C081500E9493028881698181500E94930227
S11302D069816F5F888181500E94930269816150B6
S11302E088810E949302698188810E9493026981B6
S11302F06F5F88810E9493026981615088818F5F5A
S11303000E949302888169818F5F0E9493026981B0
S11303106F5F88818F5F0E949302DF91CF91089570
S1130320EF92FF920F931F93CF93C0E00F2EF2E64C
S1130330EF2EF0E0FF2EF02D05E610E0F7016181CD
S11303406C0F80E20E949302F80161816C0F80E6D9
S11303500E949302F70161816C0F81E20E94930273
S1130360F80161816C0F8FE50E949302CF5FC93061
S113037029F7E2E6F0E081818083E5E6F0E081811F
S11303808083CF911F910F91FF90EF9008950E9469
S1130390F3000E942A010E948B000E9459010E94CE
S11303A090010895CF93C0E06C2F8EE10E949302D8
S11303B06C2F82E60E949302CF5FC034A9F7CF91DD
S11303C008950E947B000E9453020E94D2010E9461
S11303D049008CE1809361000895882331F081E025
S11303E080936E04DA98DB9A089510926E04DB9879
S11303F0DA9A08959FEF94BBD89A9AE19A95F1F707
S113040000C085BBD8988AE18A95F1F700C00895A9
S11304108BB3837F8BBB0895CF93C82FD99A0E9447
S1130420FA0180916D0420916E0430E02F5F3F4FFC
S1130430829FF001839FF00D112490916C00EE0FC8
S1130440FF1FEE0FFF1FEE0FFF1FE359FF4FE90FD2
S1130450F11DC0838F5F8F7380936D04D998CF9102
S113046008951F93CF93DF9380E480936D040E94DB
S1130470FA0110E0812F886B80936C000E94FA01CE
S1130480C0E4D0E080E00E940C022197D9F71F5FFE
S1130490183081F788EB80936C000E94FA01DF9199
S11304A0CF911F9108958FEF84BB8AB38F608ABB6D
S11304B00E9408028FE30E94FA0180EC0E94FA0174
S11304C00E94310280E00E94ED010895CF93C82F6D
S11304D0806480936D040E94FA01C0936D04CF91EF
S11304E00895CF93C82F886B80936C000E94FA0103
S11304F0C0936C00CF910895CF93DF93C82FD62F6C
S113050082958695869583700E94ED018D2F869540
S1130510869586950E9471028C2F8F730E946602C5
S1130520DF91CF910895CF93C62F0E947C028091D2
S11305306E0490E0019620916D04289FF001299F9C
S1130540F00D112480916C00EE0FFF1FEE0FFF1FC2
S1130550EE0FFF1FE359FF4FE80FF11DC77081E055
S113056090E002C0880F991FCA95E2F79081892B09
S11305700E940C02CF910895CF93C62F0E947C0253
S113058080916E0490E0019620916D04289FF00103
S1130590299FF00D112480916C00EE0FFF1FEE0FC8
S11305A0FF1FEE0FFF1FE359FF4FE80FF11DC77048
S11305B081E090E002C0880F991FCA95E2F7809508
S11305C0908189230E940C02CF9108950E94E10139
S11305D00E94C7012FEF89E698E1215080409040A6
S10F05E0E1F700C00000F4CFF894FFCF56
S9030000FC
