S00D000058506F6E672E737265632B
S11300000C942A000C9453000C9447000C94470061
S11300100C9447000C9447000C9447000C94470040
S11300200C9447000C9447000C9447000C94470030
S11300300C9447000C9447000C9447000C94470020
S11300400C9447000C9447000C9447000C94470010
S11300500C94470011241FBECFE5D8E0DEBFCDBF0E
S113006010E0A0E6B0E0E2E9F5E002C005900D92F0
S1130070A036B107D9F724E0A0E6B0E001C01D9294
S1130080AF36B207E1F70E94B9020C94C7020C9490
S11300900000929A939A8BB780648BBF85B7816076
S11300A085BF789408951F920F920FB60F92112472
S11300B08F939F93829905C080B38870809360006A
S11300C013C09091600080B38870891769F09923F8
S11300D031F0809161008F5F8093610005C0809151
S11300E061008150809361009F918F910F900FBEAA
S11300F00F901F901895E8E6F0E080E4808380E29A
S1130100818382E082838EEF83838CE1809363001A
S1130110809366000895809168009FED980F9F3347
S113012028F0E8E6F0E0928191959283813420F002
S1130130909169009093660090916100292F092E97
S1130140000C330B275F3F4F2134310524F097E334
S11301509093610005C099231CF41092610090E013
S113016090936300909169002DEF290F2B3328F0B1
S1130170E8E6F0E0238121952383E8E6F0E022819C
S1130180820F80838381980F91830895CF93DF93A7
S1130190C8E6D0E069816150888181500E948F0255
S11301A08881698181500E948F0269816F5F888193
S11301B081500E948F026981615088810E948F0260
S11301C0698188810E948F0269816F5F88810E94A2
S11301D08F026981615088818F5F0E948F028881BC
S11301E069818F5F0E948F0269816F5F88818F5F51
S11301F00E948F02DF91CF910895EF92FF920F93A7
S11302001F93CF93C0E00F2EF2E6EF2EF0E0FF2E07
S1130210F02D05E610E0F70160816C0F80E20E948A
S11302208F02F80160816C0F80E60E948F02F70153
S113023060816C0F81E20E948F02F80160816C0F73
S11302408FE50E948F02CF5FC93029F7CF911F91AC
S11302500F91FF90EF900895CF93DF93C8E6D0E01D
S113026069816150888181500E9466028881698118
S113027081500E94660269816F5F888181500E946B
S113028066026981615088810E9466026981888161
S11302900E94660269816F5F88810E94660269819B
S11302A0615088818F5F0E946602888169818F5FB7
S11302B00E94660269816F5F88818F5F0E94660277
S11302C0DF91CF910895EF92FF920F931F93CF93F5
S11302D0C0E00F2EF2E6EF2EF0E0FF2EF02D05E643
S11302E010E0F70161816C0F80E20E946602F80160
S11302F061816C0F80E60E946602F70161816C0FD8
S113030081E20E946602F80161816C0F8FE50E9410
S11303106602CF5FC93029F7E2E6F0E0818180838D
S1130320E5E6F0E081818083CF911F910F91FF90EA
S1130330EF9008950E94C6000E94FD000E948B0069
S11303400E942C010E9463010895CF93C0E06C2F9A
S11303508EE10E9466026C2F82E60E946602CF5FE5
S1130360C034A9F7CF9108950E947B000E94260211
S11303700E94A5010E9449008CE1809361000895C8
S1130380882331F081E080936E04DA98DB9A089533
S113039010926E04DB98DA9A08959FEF94BBD89A72
S11303A09AE19A95F1F700C085BBD8988AE18A95BD
S11303B0F1F700C008958BB3837F8BBB0895CF936F
S11303C0C82FD99A0E94CD0180916D0420916E04AA
S11303D030E02F5F3F4F829FF001839FF00D112487
S11303E090916C00EE0FFF1FEE0FFF1FEE0FFF1F2B
S11303F0E359FF4FE90FF11DC0838F5F8F73809323
S11304006D04D998CF9108951F93CF93DF9380E41F
S113041080936D040E94CD0110E0812F886B80933E
S11304206C000E94CD01C0E4D0E080E00E94DF01B6
S11304302197D9F71F5F183081F788EB80936C0000
S11304400E94CD01DF91CF911F9108958FEF84BB5E
S11304508AB38F608ABB0E94DB018FE30E94CD01C7
S113046080EC0E94CD010E94040280E00E94C00141
S11304700895CF93C82F806480936D040E94CD01AA
S1130480C0936D04CF910895CF93C82F886B809348
S11304906C000E94CD01C0936C00CF910895CF935E
S11304A0DF93C82FD62F82958695869583700E94F8
S11304B0C0018D2F8695869586950E9444028C2FC7
S11304C08F730E943902DF91CF910895CF93C62F85
S11304D00E944F0280916E0490E0019620916D0479
S11304E0289FF001299FF00D112480916C00EE0FDC
S11304F0FF1FEE0FFF1FEE0FFF1FE359FF4FE80F23
S1130500F11DC77081E090E002C0880F991FCA9561
S1130510E2F79081892B0E94DF01CF910895CF9358
S1130520C62F0E944F0280916E0490E001962091A4
S11305306D04289FF001299FF00D112480916C0017
S1130540EE0FFF1FEE0FFF1FEE0FFF1FE359FF4FCC
S1130550E80FF11DC77081E090E002C0880F991F79
S1130560CA95E2F78095908189230E94DF01CF919B
S113057008950E94B4010E949A012FEF85EA9EE03B
S1130580215080409040E1F700C00000F4CFF8947F
S1050590FFCF97
S9030000FC
