:100000000C942A000C9453000C9447000C94470065
:100010000C9447000C9447000C9447000C94470044
:100020000C9447000C9447000C9447000C94470034
:100030000C9447000C9447000C9447000C94470024
:100040000C9447000C9447000C9447000C94470014
:100050000C94470011241FBECFE5D8E0DEBFCDBF12
:1000600010E0A0E6B0E0E8E9F7E002C005900D92EC
:10007000A036B107D9F724E0A0E6B0E001C01D9298
:10008000AF36B207E1F70E94BC030C94CA030C948C
:100090000000929A939A8BB780648BBF85B781607A
:1000A00085BF789408951F920F920FB60F92112476
:1000B0008F939F93829905C080B38870809360006E
:1000C00013C09091600080B38870891769F09923FC
:1000D00031F0809161008F5F8093610005C0809155
:1000E00061008150809361009F918F910F900FBEAE
:1000F0000F901F901895E8E6F0E080E4808380E29E
:10010000818382E0828313828CE1809363008093F9
:1001100066000895CF93DF93C8E6D0E0698161500F
:10012000888181500E9493038881698181500E9457
:10013000930369816F5F888181500E949303698175
:10014000615088810E949303698188810E94930392
:1001500069816F5F88810E94930369816150888102
:100160008F5F0E949303888169818F5F0E94930350
:1001700069816F5F88818F5F0E949303DF91CF91C8
:100180000895EF92FF920F931F93CF93C0E00F2E2D
:10019000F2E6EF2EF0E0FF2EF02D05E610E0F7017D
:1001A00060816C0F80E20E949303F80160816C0F04
:1001B00080E60E949303F70160816C0F81E20E9448
:1001C0009303F80160816C0F8FE50E949303CF5F6A
:1001D000C93029F7CF911F910F91FF90EF900895AB
:1001E000CF93DF93C8E6D0E0698161508881815068
:1001F0000E946B038881698181500E946B03698131
:100200006F5F888181500E946B0369816150888192
:100210000E946B03698188810E946B0369816F5F13
:1002200088810E946B036981615088818F5F0E9481
:100230006B03888169818F5F0E946B0369816F5FA7
:1002400088818F5F0E946B03DF91CF910895EF92B9
:10025000FF920F931F93CF93C0E00F2EF2E6EF2E85
:10026000F0E0FF2EF02D05E610E0F70161816C0F44
:1002700080E20E946B03F80161816C0F80E60E94AE
:100280006B03F70161816C0F81E20E946B03F8013F
:1002900061816C0F8FE50E946B03CF5FC93029F736
:1002A000E2E6F0E081818083E5E6F0E08181808311
:1002B000CF911F910F91FF90EF90089590E04091A2
:1002C0006900042E000C550B481759074CF09C018F
:1002D000275F3F4F81E0241735071CF480E0089525
:1002E00080E0089540916900042E000C550B90E0C9
:1002F00048175907E9F09C01275F3F4F4217530702
:10030000C9F02750310942175307B4F02B5F3F4F14
:10031000241735079CF0235031094217530784F006
:100320002F5F3F4F81E0241735075CF080E0089590
:100330008DEF089583E008958EEF089582E008958B
:100340008FEF0895E8E6F0E09281892F819523816F
:10035000211106C0181614F08FEF01C081E0891B2F
:100360008A3F0CF48AEF87300CF086E00895809184
:1003700069008450282F082E000C330B275F3F4F55
:100380002134310524F488231CF480E001C087E384
:1003900090916600891B18166CF4833124F48A301E
:1003A00024F482E003C089E001C084E0980F9093B8
:1003B00066000895882364F4833124F48A3024F499
:1003C00082E003C089E001C084E0981B909366003E
:1003D0000895CF93DF93809168008332F0F48132E7
:1003E00058F4E5E6F0E082818F5F82830E947B0013
:1003F0008EEF80936A002DC0C09163008C2F0E9405
:100400005E01882331F18C2F0E947201C8E6D0E092
:100410008B830E94A2018A831CC08E35D0F0803667
:1004200040F0E2E6F0E082818F5F82830E947B00F1
:1004300010C0C09166008C2F0E945E01882349F095
:100440008C2F0E947201C8E6D0E08B830E94A2012B
:100450008A8380916800813410F00E94B7018091F6
:100460006100282F082E000C330B275F3F4F2134EB
:10047000310524F087E38093610005C088231CF4D4
:100480001092610080E080936300E8E6F0E0208154
:100490003281832F032E000C990B820F911D803225
:1004A000910524F480E2809368000AC081369105AA
:1004B00024F080E68093680003C0230F2093680037
:1004C000E8E6F0E091818381282F082E000C330BA1
:1004D000290F311D97FD3A95332324F4118281951C
:1004E00083830DC02E3331053CF0E8E6F0E09DE358
:1004F00091838195838303C0890F80936900DF9185
:10050000CF9108950E948A000E94C1000E94E901D3
:100510000E94F0000E9427010895CF93DF93D0E05E
:10052000CD2FC1706D2F8C2F0E946B03CE5FCE310B
:10053000C8F3DF5FD034A1F7C0E06C2F8EE10E94DA
:100540006B036C2F82E60E946B03CF5FC034A9F768
:10055000D0E0CD2FC1706D2F82E68C0F0E946B030F
:10056000CE5FCE31C0F3DF5FD03499F7DF91CF910A
:10057000089582E090E00E947B000E942B030E947D
:100580008D020E9449008CE18093610008958823C8
:1005900031F081E080936E04DA98DB9A089510922E
:1005A0006E04DB98DA9A08959FEF94BBD89A9AE18B
:1005B0009A95F1F700C085BBD8988AE18A95F1F742
:1005C00000C008958BB3837F8BBB0895CF93C82F52
:1005D000D99A0E94D40280916D04E0916E0490E457
:1005E000E99FF0011124E80FF11D90916C00EE0FCE
:1005F000FF1FEE0FFF1FEE0FFF1FE359FF4FE90F25
:10060000F11DC0838F5F8F7380936D04D998CF9154
:1006100008951F93CF93DF9380E480936D040E942D
:10062000D40210E0812F886B80936C000E94D4026A
:10063000C0E4D0E080E00E94E6022197D9F71F5F76
:10064000183081F788EB80936C000E94D402DF9110
:10065000CF911F9108958FEF84BB8AB38F608ABBBF
:100660000E94E2028FE30E94D40280EC0E94D40236
:100670000E94090380E00E94C7020895CF93C82F0B
:10068000806480936D040E94D402C0936D04CF9166
:100690000895CF93C82F886B80936C000E94D4027A
:1006A000C0936C00CF910895CF93DF93C82FD62FBE
:1006B00082958695869583700E94C7028D2F8695B8
:1006C000869586950E9449038C2F8F730E943E0366
:1006D000DF91CF910895CF93C62F0E945403E091EC
:1006E0006E0480916D0490E4E99FF0011124E80FFD
:1006F000F11D80916C00EE0FFF1FEE0FFF1FEE0F3C
:10070000FF1FE359FF4FE80FF11DC77081E090E034
:1007100002C0880F991FCA95E2F79081892B0E9429
:10072000E602CF910895CF93C62F0E945403E09123
:100730006E0480916D0490E4E99FF0011124E80FAC
:10074000F11D80916C00EE0FFF1FEE0FFF1FEE0FEB
:10075000FF1FE359FF4FE80FF11DC77081E090E0E4
:1007600002C0880F991FCA95E2F78095908189236E
:100770000E94E602CF9108950E94B9020E9482026F
:100780002FEF83EC99E0215080409040E1F700C0CA
:080790000000F4CFF894FFCF44
:00000001FF
