S00D000058506F6E672E737265632B
S11300000C942A000C9453000C9447000C94470061
S11300100C9447000C9447000C9447000C94470040
S11300200C9447000C9447000C9447000C94470030
S11300300C9447000C9447000C9447000C94470020
S11300400C9447000C9447000C9447000C94470010
S11300500C94470011241FBECFE5D8E0DEBFCDBF0E
S113006010E0A0E6B0E0EEE6F5E002C005900D92E7
S1130070A036B107D9F724E0A0E6B0E001C01D9294
S1130080AF36B207E1F70E94A7020C94B5020C94B4
S11300900000929A939A8BB780648BBF85B7816076
S11300A085BF789408951F920F920FB60F92112472
S11300B08F939F93829905C080B38870809360006A
S11300C013C09091600080B38870891769F09923F8
S11300D031F0809161008F5F8093610005C0809151
S11300E061008150809361009F918F910F900FBEAA
S11300F00F901F901895E8E6F0E080E4808380E29A
S1130100818382E082838EEF83838CE1809363001A
S1130110809366000895809168009FED980F9F3347
S113012028F0E8E6F0E0928191959283813420F002
S113013090916900909366009091610090936300A0
S1130140909169002DEF290F2B3328F0E8E6F0E0B9
S1130150238121952383E8E6F0E02281820F8083C6
S11301608381980F91830895CF93DF93C8E6D0E0FD
S113017069816150888181500E947D0288816981F2
S113018081500E947D0269816F5F888181500E9445
S11301907D026981615088810E947D026981888124
S11301A00E947D0269816F5F88810E947D0269815E
S11301B0615088818F5F0E947D02888169818F5F91
S11301C00E947D0269816F5F88818F5F0E947D023A
S11301D0DF91CF910895EF92FF920F931F93CF93E6
S11301E0C0E00F2EF2E6EF2EF0E0FF2EF02D05E634
S11301F010E0F70160816C0F80E20E947D02F8013B
S113020060816C0F80E60E947D02F70160816C0FB3
S113021081E20E947D02F80160816C0F8FE50E94EB
S11302207D02CF5FC93029F7CF911F910F91FF90C5
S1130230EF900895CF93DF93C8E6D0E069816150D1
S1130240888181500E9454028881698181500E9472
S1130250540269816F5F888181500E9454026981D0
S1130260615088810E945402698188810E945402ED
S113027069816F5F88810E9454026981615088811D
S11302808F5F0E945402888169818F5F0E945402AB
S113029069816F5F88818F5F0E945402DF91CF91E3
S11302A00895EF92FF920F931F93CF93C0E00F2E08
S11302B0F2E6EF2EF0E0FF2EF02D05E610E0F70158
S11302C061816C0F80E20E945402F80161816C0F1D
S11302D080E60E945402F70161816C0F81E20E9462
S11302E05402F80161816C0F8FE50E945402CF5FC4
S11302F0C93029F7E2E6F0E081818083E5E6F0E0A9
S113030081818083CF911F910F91FF90EF90089589
S11303100E94B4000E94EB000E948B000E941A010C
S11303200E9451010895CF93C0E06C2F8EE10E948A
S113033054026C2F82E60E945402CF5FC034A9F7A6
S1130340CF9108950E947B000E9414020E949301A1
S11303500E9449008CE1809361000895882331F064
S113036081E080936E04DA98DB9A089510926E040B
S1130370DB98DA9A08959FEF94BBD89A9AE19A95FC
S1130380F1F700C085BBD89885E38A95F1F70000A2
S113039008958BB3837F8BBB0895CF93C82FD99ACD
S11303A00E94BB0180916D0420916E0430E02F5FA8
S11303B03F4F829FF001839FF00D112490916C00B8
S11303C0EE0FFF1FEE0FFF1FEE0FFF1FE359FF4F4E
S11303D0E90FF11DC0838F5F8F7380936D04D998EB
S11303E0CF9108951F93CF93DF9380E480936D049E
S11303F00E94BB0110E0812F886B80936C000E94E7
S1130400BB01C0E4D0E080E00E94CD012197D9F780
S11304101F5F183081F788EB80936C000E94BB014A
S1130420DF91CF911F9108958FEF84BB8AB38F60C2
S11304308ABB0E94C9018FE30E94BB0180EC0E9429
S1130440BB010E94F20180E00E94AE010895CF93A7
S1130450C82F806480936D040E94BB01C0936D0417
S1130460CF910895CF93C82F886B80936C000E941E
S1130470BB01C0936C00CF910895CF93DF93C82F35
S1130480D62F82958695869583700E94AE018D2F16
S11304908695869586950E9432028C2F8F730E94D2
S11304A02702DF91CF910895CF93C62F0E943D027A
S11304B080916E0490E0019620916D04289FF001D4
S11304C0299FF00D112480916C00EE0FFF1FEE0F99
S11304D0FF1FEE0FFF1FE359FF4FE80FF11DC77019
S11304E081E090E002C0880F991FCA95E2F79081DD
S11304F0892B0E94CD01CF910895CF93C62F0E94DE
S11305003D0280916E0490E0019620916D04289F35
S1130510F001299FF00D112480916C00EE0FFF1F54
S1130520EE0FFF1FEE0FFF1FE359FF4FE80FF11D02
S1130530C77081E090E002C0880F991FCA95E2F766
S11305408095908189230E94CD01CF9108950E94C6
S1130550A2010E9488012FEF85EA9EE0215080408D
S11105609040E1F700C00000F4CFF894FFCF04
S9030000FC
