:100000000C942A000C945B000C9483000C94470021
:100010000C9447000C9447000C9447000C94470044
:100020000C9447000C9447000C9447000C94470034
:100030000C9447000C9447000C9447000C94470024
:100040000C9447000C9447000C9447000C94470014
:100050000C94470011241FBECFE5D8E0DEBFCDBF12
:1000600010E0A0E6B0E0EAE2F9E002C005900D92EF
:10007000A236B107D9F724E0A2E6B0E001C01D9294
:10008000A637B207E1F70E947D040C9493040C9408
:100090000000959A929A939A949A8BB780648BBF3A
:1000A0008BB780688BBF85B7816085BF85B784605B
:1000B00085BF789408951F920F920FB60F92112466
:1000C0008F939F93829905C080B380728093630061
:1000D00013C09091630080B38072891769F09923EF
:1000E00031F0809168008F5F8093680005C0809137
:1000F00068008150809368009F918F910F900FBE90
:100100000F901F9018951F920F920FB60F92112407
:100110008F939F93849905C080B388708093620009
:1001200013C09091620080B38870891769F0992399
:1001300031F0809167008F5F8093670005C08091E8
:1001400067008150809367009F918F910F900FBE41
:100150000F901F901895869903C081E080936400EA
:10016000879903C081E0809365000895EFE6F0E091
:1001700080E4808380E2818382E0828313828CE149
:1001800080936A0080936D000895CF93DF93CFE64C
:10019000D0E069816150888181500E945404888137
:1001A000698181500E94540469816F5F8881815008
:1001B0000E9454046981615088810E9454046981BD
:1001C00088810E94540469816F5F88810E94540471
:1001D0006981615088818F5F0E94540488816981A0
:1001E0008F5F0E94540469816F5F88818F5F0E94D6
:1001F0005404DF91CF910895EF92FF920F931F93D4
:10020000CF93C0E00F2EF9E6EF2EF0E0FF2EF02D99
:100210000CE610E0F70160816C0F80E20E9454044C
:10022000F80160816C0F80E60E945404F701608140
:100230006C0F81E20E945404F80160816C0F8FE51D
:100240000E945404CF5FC93029F7CF911F910F91BD
:10025000FF90EF900895CF93DF93CFE6D0E06981D0
:100260006150888181500E942C048881698181506D
:100270000E942C0469816F5F888181500E942C0448
:100280006981615088810E942C04698188810E9463
:100290002C0469816F5F88810E942C046981615000
:1002A00088818F5F0E942C04888169818F5F0E9402
:1002B0002C0469816F5F88818F5F0E942C04DF911D
:1002C000CF910895EF92FF920F931F93CF93C0E0C9
:1002D0000F2EF9E6EF2EF0E0FF2EF02D0CE610E0E9
:1002E000F70161816C0F80E20E942C04F8016181AA
:1002F0006C0F80E60E942C04F70161816C0F81E293
:100300000E942C04F80161816C0F8FE50E942C047F
:10031000CF5FC93029F7E9E6F0E081818083ECE620
:10032000F0E081818083CF911F910F91FF90EF903A
:10033000089590E040917000042E000C550B481772
:1003400059074CF09C01275F3F4F81E02417350788
:100350001CF480E0089580E0089540917000042E20
:10036000000C550B90E048175907E9F09C01275FF6
:100370003F4F42175307C9F027503109421753071F
:10038000B4F02B5F3F4F241735079CF02350310901
:100390004217530784F02F5F3F4F81E02417350742
:1003A0005CF080E008958DEF089583E008958EEF6E
:1003B000089582E008958FEF0895EFE6F0E09281CE
:1003C000892F81952381211106C0181614F08FEF13
:1003D00001C081E0891B8A3F0CF48AEF87300CF062
:1003E00086E0089580917000845090916100292FDB
:1003F000219520936100891B282F082E000C330BB8
:10040000275F3F4F2134310524F488231CF480E01A
:1004100001C087E390916D00891B18166CF483313D
:1004200024F48A3024F482E003C089E001C084E02F
:10043000980F90936D000895882364F4833124F419
:100440008A3024F482E003C089E001C084E0981B74
:1004500090936D00089580916F00813438F0809101
:100460006400811107C00E94F20108958091640028
:100470008823B1F080916700282F082E000C330BE1
:10048000275F3F4F2134310524F087E380936700D5
:1004900005C088231CF41092670080E080936D00F3
:1004A000089580917000845090916000292F2195CB
:1004B00020936000891B282F082E000C330B275F28
:1004C0003F4F2134310524F488231CF480E001C01F
:1004D00087E390916A00891B18166CF4833124F429
:1004E0008A3024F482E003C089E001C084E0980FE0
:1004F00090936A000895882364F4833124F48A3049
:1005000024F482E003C089E001C084E0981B90934A
:100510006A00089580916F00803438F480916500FE
:10052000811107C00E9451020895809165008823BF
:10053000B1F080916800282F082E000C330B275F44
:100540003F4F2134310524F087E38093680005C0D4
:1005500088231CF41092680080E080936A0008955C
:10056000CF93DF9380916F00833208F5813258F486
:10057000ECE6F0E082818F5F82830E94B6008EEF0E
:100580008093710033C0C0916A008C2F0E94990142
:10059000882361F18C2F0E94AD01CFE6D0E08B83E0
:1005A0000E94DD018A8381E0809366001FC08E3542
:1005B000E8F0803640F0E9E6F0E082818F5F8283E8
:1005C0000E94B60013C0C0916D008C2F0E9499014B
:1005D000882361F08C2F0E94AD01CFE6D0E08B83A1
:1005E0000E94DD018A8381E0809366000E948A0276
:1005F0000E942B02EFE6F0E020813281832F032E50
:10060000000C990B820F911D8032910524F480E239
:1006100080936F000AC08136910524F080E68093B4
:100620006F0003C0230F20936F00EFE6F0E091818D
:100630008381282F082E000C330B290F311D97FDC5
:100640003A9533233CF411828195838381E0809332
:10065000660010C02E33310554F0EFE6F0E09DE364
:1006600091838195838381E08093660003C0890F25
:1006700080937000DF91CF910895109266000E94E0
:10068000C5000E94FC000E94B0020E942B010E9443
:1006900062010895CF93DF93D0E0CD2FC1706D2F0D
:1006A0008C2F0E942C04CE5FCE31C8F3DF5FD03494
:1006B000A1F7C0E06C2F8EE10E942C046C2F82E623
:1006C0000E942C04CF5FC034A9F7D0E0CD2FC170B9
:1006D0006D2F82E68C0F0E942C04CE5FCE31C0F3CA
:1006E000DF5FD03499F7DF91CF91089582E090E0F9
:1006F0000E94B6000E94EC030E944A030E94490037
:100700000E94AB008CE1809368008093670008959D
:10071000882331F081E080937504DA98DB9A08959C
:1007200010927504DB98DA9A08959FEF94BBD89ADB
:100730009AE19A95F1F700C085BBD8988AE18A952D
:10074000F1F700C008958BB3837F8BBB0895CF93DF
:10075000C82FD99A0E94950380917404E091750482
:1007600090E4E99FF0011124E80FF11D90917300CE
:10077000EE0FFF1FEE0FFF1FEE0FFF1FEC58FF4F96
:10078000E90FF11DC0838F5F8F7380937404D99834
:10079000CF9108951F93CF93DF9380E480937404E7
:1007A0000E94950310E0812F886B809373000E9454
:1007B0009503C0E4D0E080E00E94A7032197D9F719
:1007C0001F5F183081F788EB809373000E949503B8
:1007D000DF91CF911F9108958FEF84BB8AB38F6013
:1007E0008ABB0E94A3038FE30E94950380EC0E94C2
:1007F00095030E94CA0380E00E9488030895CF9366
:10080000C82F8064809374040E949503C09374047D
:10081000CF910895CF93C82F886B809373000E9467
:100820009503C0937300CF910895CF93DF93C82FA2
:10083000D62F82958695869583700E9488038D2F8A
:100840008695869586950E940A048C2F8F730E9448
:10085000FF03DF91CF910895CF93C62F0E94150417
:10086000E09175048091740490E4E99FF0011124F3
:10087000E80FF11D80917300EE0FFF1FEE0FFF1FB9
:10088000EE0FFF1FEC58FF4FE80FF11DC77081E01E
:1008900090E002C0880F991FCA95E2F79081892BDA
:1008A0000E94A703CF910895CF93C62F0E941504ED
:1008B000E09175048091740490E4E99FF0011124A3
:1008C000E80FF11D80917300EE0FFF1FEE0FFF1F69
:1008D000EE0FFF1FEC58FF4FE80FF11DC77081E0CE
:1008E00090E002C0880F991FCA95E2F78095908129
:1008F00089230E94A703CF910895D69A0E94760378
:100900000E943D0380916600882311F0DE9801C0AB
:10091000DE9A2FEF83EC99E0215080409040E1F780
:0A09200000C00000EDCFF894FFCFF7
:02092A000203C6
:00000001FF
