S00D000058506F6E672E737265632B
S11300000C942A000C9453000C9447000C94470061
S11300100C9447000C9447000C9447000C94470040
S11300200C9447000C9447000C9447000C94470030
S11300300C9447000C9447000C9447000C94470020
S11300400C9447000C9447000C9447000C94470010
S11300500C94470011241FBECFE5D8E0DEBFCDBF0E
S113006010E0A0E6B0E0EAE5F6E002C005900D92EB
S1130070A036B107D9F724E0A0E6B0E001C01D9294
S1130080AF36B207E1F70E941D030C942B030C94C6
S11300900000929A939A8BB780648BBF85B7816076
S11300A085BF789408951F920F920FB60F92112472
S11300B08F939F93829905C080B38870809360006A
S11300C013C09091600080B38870891769F09923F8
S11300D031F0809161008F5F8093610005C0809151
S11300E061008150809361009F918F910F900FBEAA
S11300F00F901F901895E8E6F0E080E4808380E29A
S1130100818382E082838EEF83838CE1809363001A
S1130110809366000895CF93DF93C8E6D0E06981A9
S11301206150888181500E94F302888169818150E5
S11301300E94F30269816F5F888181500E94F302FB
S11301406981615088810E94F302698188810E94DB
S1130150F30269816F5F88810E94F30269816150B3
S113016088818F5F0E94F302888169818F5F0E947A
S1130170F30269816F5F88818F5F0E94F302DF91D0
S1130180CF910895EF92FF920F931F93CF93C0E006
S11301900F2EF2E6EF2EF0E0FF2EF02D05E610E034
S11301A0F70160816C0F80E20E94F302F801608124
S11301B06C0F80E60E94F302F70160816C0F81E20C
S11301C00E94F302F80160816C0F8FE50E94F30234
S11301D0CF5FC93029F7CF911F910F91FF90EF9016
S11301E00895CF93DF93C8E6D0E069816150888198
S11301F081500E94CA028881698181500E94CA028A
S113020069816F5F888181500E94CA02698161504F
S113021088810E94CA02698188810E94CA02698118
S11302206F5F88810E94CA026981615088818F5FF3
S11302300E94CA02888169818F5F0E94CA02698113
S11302406F5F88818F5F0E94CA02DF91CF9108950A
S1130250EF92FF920F931F93CF93C0E00F2EF2E61D
S1130260EF2EF0E0FF2EF02D05E610E0F70161819E
S11302706C0F80E20E94CA02F80161816C0F80E673
S11302800E94CA02F70161816C0F81E20E94CA02D6
S1130290F80161816C0F8FE50E94CA02CF5FC930FB
S11302A029F7E2E6F0E081818083E5E6F0E08181F0
S11302B08083CF911F910F91FF90EF90089540910B
S11302C06900481758F0282F30E0275F3F4F50E06F
S11302D081E0241735071CF480E0089580E0089538
S11302E0809168008332A8F4813238F4E5E6F0E0C6
S11302F082818F5F82830E947B00809163000E94D1
S11303005F018823E1F0E8E6F0E082818195828351
S113031016C08E35A0F0803638F0E2E6F0E0828137
S11303208F5F82830E947B00809166000E945F0140
S1130330882329F0E8E6F0E0828181958283909118
S11303406800913488F1809169008450282F082E28
S1130350000C330B275F3F4F2134310524F48823ED
S11303601CF480E001C087E320916600821B18160C
S11303706CF4833124F48A3024F482E003C089E0ED
S113038001C084E0280F209366000EC0882364F423
S1130390833124F48A3024F482E003C089E001C06C
S11303A084E0281B2093660080916100282F082E8A
S11303B0000C330B275F3F4F2134310524F087E3D2
S11303C08093610005C088231CF41092610080E0D2
S11303D080936300809169002DEF280F2B3328F060
S11303E0E8E6F0E0238121952383E8E6F0E022812A
S11303F0920F90839381890F818308950E948B00CB
S11304000E94C2000E9470010E94F1000E94280113
S11304100895CF93C0E06C2F8EE10E94CA026C2F26
S113042082E60E94CA02CF5FC034A9F7CF91089533
S11304300E947B000E948A020E9409020E944900D5
S11304408CE1809361000895882331F081E08093EA
S11304506E04DA98DB9A089510926E04DB98DA9AA7
S113046008959FEF94BBD89A9AE19A95F1F700C04A
S113047085BBD8988AE18A95F1F700C008958BB3BB
S1130480837F8BBB0895CF93C82FD99A0E943102E2
S113049080916D0420916E0430E02F5F3F4F829F66
S11304A0F001839FF00D112490916C00EE0FFF1F5B
S11304B0EE0FFF1FEE0FFF1FE359FF4FE90FF11D72
S11304C0C0838F5F8F7380936D04D998CF91089503
S11304D01F93CF93DF9380E480936D040E943102D5
S11304E010E0812F886B80936C000E943102C0E47D
S11304F0D0E080E00E9443022197D9F71F5F1830B3
S113050081F788EB80936C000E943102DF91CF91D8
S11305101F9108958FEF84BB8AB38F608ABB0E94BA
S11305203F028FE30E94310280EC0E9431020E945C
S1130530680280E00E9424020895CF93C82F80644B
S113054080936D040E943102C0936D04CF9108958D
S1130550CF93C82F886B80936C000E943102C093A4
S11305606C00CF910895CF93DF93C82FD62F829537
S11305708695869583700E9424028D2F8695869594
S113058086950E94A8028C2F8F730E949D02DF9192
S1130590CF910895CF93C62F0E94B30280916E0429
S11305A090E0019620916D04289FF001299FF00DA1
S11305B0112480916C00EE0FFF1FEE0FFF1FEE0F52
S11305C0FF1FE359FF4FE80FF11DC77081E090E072
S11305D002C0880F991FCA95E2F79081892B0E9467
S11305E04302CF910895CF93C62F0E94B302809106
S11305F06E0490E0019620916D04289FF001299FDC
S1130600F00D112480916C00EE0FFF1FEE0FFF1F01
S1130610EE0FFF1FE359FF4FE80FF11DC77081E094
S113062090E002C0880F991FCA95E2F780959081E7
S113063089230E944302CF9108950E9418020E94C8
S1130640FE012FEF83EC99E0215080409040E1F7C8
S10D065000C00000F4CFF894FFCFBF
S9030000FC
