S00D000058506F6E672E737265632B
S11300000C942A000C9447000C9447000C9447006D
S11300100C9447000C9447000C9447000C94470040
S11300200C9447000C9447000C9447000C94470030
S11300300C9447000C9447000C9447000C94470020
S11300400C9447000C9447000C9447000C94470010
S11300500C94470011241FBECFE5D8E0DEBFCDBF0E
S113006012E0A0E6B0E0EEE2F4E002C005900D92EA
S1130070A036B107D9F726E0A0E6B2E001C01D9290
S1130080A336B207E1F70E94D8010C9415020C9430
S11300900000882331F081E080936206DA98DB9ACD
S11300A0089510926206DB98DA9A08959FEF94BB44
S11300B0D89A95E89A95F1F7000085BBD8988AEB11
S11300C08A95F1F700C008958BB3837F8BBB0895A5
S11300D0CF93C82FD99A0E9456008091610620912F
S11300E0620630E02F5F3F4F829FF001839FF00D47
S11300F0112490916002EE0FFF1FEE0FFF1FEE0F11
S1130100FF1FEF59FD4FE90FF11DC0838F5F8F7300
S113011080936106D998CF9108951F93CF93DF936D
S113012080E4809361060E94560010E0812F886B62
S1130130809360020E945600C0E4D0E080E00E94F8
S113014068002197D9F71F5F183081F788EB8093F7
S113015060020E945600DF91CF911F9108958FEFA6
S113016084BB8AB38F608ABB0E9464008FE30E94C1
S1130170560080EC0E9456000E948D0080E00E9490
S113018049000895E1E6F2E021E636E008C0119264
S1130190E817F907E1F7FC012817390719F0CF012F
S11301A00896F5CF08950E9464000E948D0080E0B7
S11301B00E9449000E94C2000895CF93C82F806412
S11301C0809361060E945600C0936106CF91089502
S11301D0CF93C82F886B809360020E945600C0930F
S11301E06002CF910895CF93DF93C82FD62F8295C5
S11301F08695869583700E9449008D2F86958695F5
S113020086950E94E8008C2F8F730E94DD00DF9199
S1130210CF910895CF93C62F0E94F3008091620678
S113022090E0019620916106289FF001299FF00D2E
S1130230112480916002EE0FFF1FEE0FFF1FEE0FDF
S1130240FF1FEF59FD4FE80FF11DC77081E090E0EB
S113025002C0880F991FCA95E2F79081892B0E94EA
S11302606800CF910895FF920F931F93CF93DF936C
S1130270082F192F862F0E94490080E00E94DD007C
S11302801092610610926002C02FD12FF12C8F2D95
S11302900E94E8008E01005C1F4F89910E94680053
S11302A0C017D107D1F7F394E80188E0F812EFCF33
S11302B0DF91CF911F910F91FF900895CF92DF921C
S11302C0EF92FF920F931F93CF93DF93E82EF62EB6
S11302D0C22F90E08C01040F111D80179107ACF41C
S11302E0D82F6F2D8D2F0E940A012FEF80E792E007
S11302F0215080409040E1F700C00000DF5F8D2F67
S113030090E0801791076CF301C0D82F0FEF0D0F09
S11303108F2D90E06C01CC0ED11C8C159D05ACF496
S1130320CF2D6C2F802F0E940A012FEF80E792E0DF
S1130330215080409040E1F700C00000CF5F8C2F37
S113034090E08C159D056CF301C0CF2DC150E016D3
S1130350A0F4102F6C2F812F0E940A012FEF80E749
S113036092E0215080409040E1F700C0000011501D
S1130370E11680F3E3940E0D0D1BFC1680F46C2F34
S1130380802F0E940A012FEF80E792E021508040E5
S11303909040E1F700C00000C150FC1680F3DF91EB
S11303A0CF911F910F91FF90EF90DF90CF90089520
S11303B00E94AF0061E080E690E00E9433012FEFDD
S11303C089E698E1215080409040E1F700C00000A8
S11303D060E080E690E00E9433012FEF89E698E127
S11303E0215080409040E1F700C000000E94D300FB
S11303F02FEF89E698E1215080409040E1F700C05A
S113040000002FE330E04FE750E060E070E080E070
S113041090E00E945E012FEF83ED90E32150804035
S11104209040E1F700C00000C5CFF894FFCF74
S113042E000000F8F8F8F8F8F8F8F8F8F8F8F8F822
S113043EF8F8F8F8F8F8F8F80000000000000000EA
S113044E00000000000000F8F8F8F8F8F8F8F8F8E2
S113045EF8F8F8F8F8F8F8F8F8F8F8F800000000EA
S113046E000000FFFFFFFFFFFFFFFFFFFFFFFFFF87
S113047EFFFFFFFFFFFFFFFF000000000000000072
S113048E00000000000000FFFFFFFFFFFFFFFFFF63
S113049EFFFFFFFFFFFFFFFFFFFFFFFF0000000056
S11304AE000000FFFFFFFFFFFFFFFFFFFFFFFFFF47
S11304BEFFFFFFFFFFFFFFFFE0E0E0E0E0E0E0E032
S11304CEE0E0E0E0E0E0E0FFFFFFFFFFFFFFFFFF03
S11304DEFFFFFFFFFFFFFFFFFFFFFFFF0000000016
S11304EE000000FFFFFFFFFFFFFFFFFFFFFFFFFF07
S11304FEFFFFFFFFFFFFFFFFFFFFFFFFFFFFFFFFFA
S113050EFFFFFFFFFFFFFFFFFFFFFFFFFFFFFFFFE9
S113051EFFFFFFFFFFFFFFFFFFFFFFFF00000000D5
S113052E000000FFFFFFFFFFFFFFFFFFFFFFFFFFC6
S113053EFFFFFFFFFFFFFFFFFFFFFFFFFFFFFFFFB9
S113054EFFFFFFFFFFFFFFFFFFFFFFFFFFFFFFFFA9
S113055EFFFFFFFFFFFFFFFFFFFFFFFF0000000095
S113056E0000000303030303030303030303030352
S113057E0303030303030303030303030303030339
S113058E03030303030303FFFFFFFFFFFFFFFFFF4D
S113059EFFFFFFFFFFFFFFFFFFFFFFFF0000000055
S11305AE0000000000000000000000000000000039
S11305BE0000000000000000000000000000000029
S11305CE00000000000000FFFFFFFFFFFFFFFFFF22
S11305DEFFFFFFFFFFFFFFFFFFFFFFFF0000000015
S11305EE00000000000000000000000000000000F9
S11305FE00000000000000000000000000000000E9
S113060E000000000000000F0F0F0F0F0F0F0F0F51
S113061E0F0F0F0F0F0F0F0F0F0F0F0F0000000014
S9030000FC
